{
  "contractName": "metaCoin",
  "abi": [
    {
      "inputs": [],
      "payable": false,
      "stateMutability": "nonpayable",
      "type": "constructor"
    },
    {
      "constant": false,
      "inputs": [
        {
          "internalType": "address",
          "name": "receiver",
          "type": "address"
        },
        {
          "internalType": "uint256",
          "name": "amount",
          "type": "uint256"
        }
      ],
      "name": "sendCoin",
      "outputs": [
        {
          "internalType": "bool",
          "name": "sufficient",
          "type": "bool"
        }
      ],
      "payable": false,
      "stateMutability": "nonpayable",
      "type": "function"
    }
  ],
  "bytecode": "0x608060405234801561001057600080fd5b506127106000803373ffffffffffffffffffffffffffffffffffffffff1673ffffffffffffffffffffffffffffffffffffffff168152602001908152602001600020819055506101bf806100656000396000f3fe608060405234801561001057600080fd5b506004361061002b5760003560e01c806390b98a1114610030575b600080fd5b61007c6004803603604081101561004657600080fd5b81019080803573ffffffffffffffffffffffffffffffffffffffff16906020019092919080359060200190929190505050610096565b604051808215151515815260200191505060405180910390f35b6000816000803373ffffffffffffffffffffffffffffffffffffffff1673ffffffffffffffffffffffffffffffffffffffff1681526020019081526020016000205410156100e75760009050610184565b816000803373ffffffffffffffffffffffffffffffffffffffff1673ffffffffffffffffffffffffffffffffffffffff16815260200190815260200160002060008282540392505081905550816000808573ffffffffffffffffffffffffffffffffffffffff1673ffffffffffffffffffffffffffffffffffffffff16815260200190815260200160002060008282540192505081905550600190505b9291505056fea265627a7a72315820e3afddcd85072226258891a80b7ff078e1de203971e453bb593c0e3ab38595ee64736f6c63430005100032",
  "source": "contract metaCoin {\n    mapping(address => uint) balances;\n\n    constructor() public{ //constructor\n        balances[msg.sender] = 10000;\n    }\n\n    function sendCoin(address receiver, uint amount) public returns(bool sufficient) { //send function\n        //msg.sender --> the senders 160 bit public key \n        if (balances[msg.sender]< amount) return false;\n        balances[msg.sender]-=amount;\n        balances[receiver]+=amount;\n        return true;\n    }\n}",
  "sourcePath": "/Users/epociask/ethereum/eth-bank/contracts/Metacoin.sol",
  "compiler": {
    "name": "solc",
    "version": "0.5.16+commit.9c3226ce.Emscripten.clang"
  },
  "schemaVersion": "3.3.4",
  "updatedAt": "2021-03-11T09:43:23.730Z",
  "networkType": "ethereum",
  "devdoc": {
    "methods": {}
  },
  "userdoc": {
    "methods": {}
  }
}